:020000040800F2
:1000000068060020BD010008B7030008AF03000820
:10001000B30300087702000809050008000000008B
:10002000000000000000000000000000DD030008E8
:100030007B02000800000000B9030008A1040008CA
:10004000D7010008D7010008D7010008D701000830
:10005000D7010008D70100087D020008D701000879
:10006000D7010008D7010008D7010008D701000810
:10007000D7010008D7010008D7010008D701000800
:10008000D7010008D7010008D701000800000000D0
:10009000000000000000000000000000D701000880
:1000A000D7010008D7010008D7010008D7010008D0
:1000B000D7010008D7010008D7010008D7010008C0
:1000C000D7010008D7010008D7010008D7010008B0
:1000D000D7010008D7010008D7010008D7010008A0
:1000E000D7010008D7010008D70100080000000070
:1000F0000000000000000000000000000000000000
:1001000000000000000000000000000000000000EF
:100110000000000000000000D7010008D70100081F
:1001200000F002F800F03AF80AA090E8000C8244CF
:100130008344AAF10107DA4501D100F02FF8AFF2AC
:10014000090EBAE80F0013F0010F18BFFB1A43F0B5
:10015000010318472C0400004C040000103A24BF8F
:1001600078C878C1FAD8520724BF30C830C144BF1C
:1001700004680C607047000000230024002500265E
:10018000103A28BF78C1FBD8520728BF30C148BFFA
:100190000B6070471FB51FBD10B510BD00F031F8E2
:1001A0001146FFF7F7FF00F0B1F900F04FF803B484
:1001B000FFF7F2FF03BC00F057F800000948804742
:1001C00009480047FEE7FEE7FEE7FEE7FEE7FEE739
:1001D000FEE7FEE7FEE7FEE704480549054A064B51
:1001E00070470000A50400082101000868000020F5
:1001F00068060020680200206802002070477047EF
:100200007047754600F02CF8AE4605006946534627
:1002100020F00700854618B020B5FFF7DDFFBDE8E8
:1002200020404FF000064FF000074FF000084FF05D
:10023000000B21F00701AC46ACE8C009ACE8C009EE
:10024000ACE8C009ACE8C0098D46704710B504465B
:10025000AFF300802046BDE81040FFF7A8BF0000C4
:10026000004870470800002001491820ABBEFEE797
:1002700026000200704700BFFEE7704770472DE977
:10028000F04102460025002600200023002400271C
:1002900091F803C00CF00F0591F803C00CF0100C9E
:1002A000BCF1000F03D091F802C04CEA050591F8AB
:1002B00000C0BCF1000F31D0146800202BE04FF0DB
:1002C000010C0CFA00F3B1F800C00CEA03069E42E0
:1002D00020D183004FF00F0C0CFA03F7BC4305FA52
:1002E00003FC4CEA040491F803C0BCF1280F06D1CA
:1002F0004FF0010C0CFA00FCC2F814C00AE091F8AF
:1003000003C0BCF1480F05D14FF0010C0CFA00FC02
:10031000C2F810C0401C0828D1D31460B1F800C046
:10032000BCF1FF0F34DD546800202EE000F1080C12
:100330004FF0010808FA0CF3B1F800C00CEA03060C
:100340009E4221D183004FF00F0C0CFA03F7BC43FF
:1003500005FA03FC4CEA040491F803C0BCF1280F31
:1003600005D100F1080C08FA0CF8C2F8148091F8D5
:1003700003C0BCF1480F07D100F1080C4FF0010891
:1003800008FA0CF8C2F81080401C0828CED354603C
:10039000BDE8F0810246002093680B400BB10120BC
:1003A00000E000207047416170470161704700BF65
:1003B000FEE700BFFEE770477047000029B1064A1C
:1003C00092690243044B9A6104E0034A92698243B2
:1003D000014B9A617047000000100240704710B551
:1003E00000F002F810BD00000CB500200190009054
:1003F0002A48006840F480302849086000BF274838
:10040000006800F4003000900198401C01900098B2
:1004100018B90198B0F5A06FF1D12048006800F438
:10042000003010B10120009001E000200090009801
:10043000012831D119484068184948600846406889
:1004400048600846406848600846406820F47C10D0
:1004500048600846406840F49810486008460068C4
:1004600040F08070086000BF0C48006800F0007029
:100470000028F9D00948406820F003000749486087
:100480000846406840F00200486000BF03484068EA
:1004900000F00C000828F9D10CBD0000001002404B
:1004A0007047000010B51448006840F00100124980
:1004B000086008464068114908400F4948600846EE
:1004C00000680F4908400C4908600846006820F49D
:1004D000802008600846406820F4FE0048604FF421
:1004E0001F0088600020C862FFF779FF4FF00060AE
:1004F0000449086010BD0000001002400000FFF831
:10050000FFFFF6FE08ED00E000BFFEE7012110202E
:10051000FFF754FF01210420FFF750FF4FF4407014
:1005200013490880022088701020C8701148FFF716
:10053000A6FE01200E4908800420C8700E48FFF76F
:100540009EFE13E001210C48FFF724FF0B490880B1
:100550000846008828B14FF440710648FFF725FF90
:1005600004E04FF440710348FFF71DFFEAE7000085
:10057000000000200010014000080140040000209D
:10058000A005000800000020080000005C01000831
:10059000A805000808000020600600007801000897
:0805A000000000000000000053
:0400000508000121CD
:00000001FF
