:020000040800F2
:1000000068060020BD010008C5010008C7010008FE
:10001000C9010008CB010008CD0100080000000064
:10002000000000000000000000000000CF010008F8
:10003000D101000800000000D3010008D50100082C
:10004000D7010008D7010008D7010008D701000830
:10005000D7010008D7010008D7010008D701000820
:10006000D7010008D7010008D7010008D701000810
:10007000D7010008D7010008D7010008D701000800
:10008000D7010008D7010008D701000800000000D0
:10009000000000000000000000000000D701000880
:1000A000D7010008D7010008D7010008D7010008D0
:1000B000D7010008D7010008D7010008D7010008C0
:1000C000D7010008D7010008D7010008D7010008B0
:1000D000D7010008D7010008D7010008D7010008A0
:1000E000D7010008D7010008D70100080000000070
:1000F0000000000000000000000000000000000000
:1001000000000000000000000000000000000000EF
:100110000000000000000000D7010008D70100081F
:1001200000F002F800F03AF80AA090E8000C8244CF
:100130008344AAF10107DA4501D100F02FF8AFF2AC
:10014000090EBAE80F0013F0010F18BFFB1A43F0B5
:10015000010318472C0300004C030000103A24BF91
:1001600078C878C1FAD8520724BF30C830C144BF1C
:1001700004680C607047000000230024002500265E
:10018000103A28BF78C1FBD8520728BF30C148BFFA
:100190000B6070471FB51FBD10B510BD00F031F8E2
:1001A0001146FFF7F7FF00F033F900F04FF803B402
:1001B000FFF7F2FF03BC00F057F800000948804742
:1001C00009480047FEE7FEE7FEE7FEE7FEE7FEE739
:1001D000FEE7FEE7FEE7FEE704480549054A064B51
:1001E00070470000AD0300082101000868000020EE
:1001F00068060020680200206802002070477047EF
:100200007047754600F02CF8AE4605006946534627
:1002100020F00700854618B020B5FFF7DDFFBDE8E8
:1002200020404FF000064FF000074FF000084FF05D
:10023000000B21F00701AC46ACE8C009ACE8C009EE
:10024000ACE8C009ACE8C0098D46704710B504465B
:10025000AFF300802046BDE81040FFF7A8BF0000C4
:10026000004870470800002001491820ABBEFEE797
:1002700026000200704730B50A46002100BF24E086
:10028000138801248C402340F3B107290CDC8D0036
:100290000F24AC400368A343036093788C00A34011
:1002A0000468234303600FE0A1F10804A5000F24B4
:1002B000AC404368A34343609378A1F10804A400D1
:1002C000A340446823434360491C1029D8DB30BD58
:1002D00041617047016170470246107A0840C3B21D
:1002E0000BB9002070470120FCE710B500F002F8C0
:1002F00010BD00000CB50020019000902A48006855
:1003000040F480302849086000BF2748006800F4A6
:10031000003000900198401C0190009818B9019895
:10032000B0F5A06FF1D12048006800F4003010B1A2
:100330000120009001E0002000900098012831D1B8
:1003400019484068184948600846406848600846AF
:10035000406848600846406820F47C1048600846C1
:10036000406840F4981048600846006840F080708B
:10037000086000BF0C48006800F000700028F9D049
:100380000948406820F00300074948600846406873
:1003900040F00200486000BF0348406800F00C00D5
:1003A0000828F9D10CBD00000010024010B5144817
:1003B000006840F001001249086008464068114991
:1003C00008400F494860084600680F4908400C493A
:1003D00008600846006820F48020086008464068ED
:1003E00020F4FE0048604FF41F0088600020C862BF
:1003F000FFF77BFF4FF000600449086010BD00006C
:10040000001002400000FFF8FFFFF6FE08ED00E0DC
:100410001648806940F0140014498861012014498D
:100420000880042088701348FFF725FF4FF44070C0
:100430000F490880022088700F48FFF71CFF14E066
:1004400001210C48FFF748FF0C4908700846007866
:10045000012805D14FF440710748FFF73BFF04E046
:100460004FF440710448FFF733FFE9E70010024002
:1004700002000020000801400010014000000020A0
:10048000A004000800000020080000005C01000833
:10049000A804000808000020600600007801000899
:0804A000000000000000000054
:0400000508000121CD
:00000001FF
