:020000040800F2
:1000000070060020C1010008C9010008CB010008EA
:10001000CD010008CF010008D10100080000000058
:10002000000000000000000000000000D3010008F4
:10003000D501000800000000D7010008D901000820
:10004000DB010008DB010008DB010008DB01000820
:10005000DB010008DB010008DB010008DB01000810
:10006000DB010008DB010008DB010008DB01000800
:10007000DB010008DB010008DB010008DB010008F0
:10008000DB010008DB010008DB01000800000000C4
:10009000000000000000000000000000DB0100087C
:1000A000DB010008DB010008DB010008DB010008C0
:1000B000DB010008DB010008DB010008DB010008B0
:1000C000DB010008DB010008DB010008DB010008A0
:1000D000DB010008DB010008DB010008DB01000890
:1000E000DB010008DB010008DB0100080000000064
:1000F0000000000000000000000000000000000000
:1001000000000000000000000000000000000000EF
:100110000000000000000000DB010008DB01000817
:1001200000F002F800F03CF80AA090E8000C8244CD
:100130008344AAF10107DA4501D100F031F8AFF2AA
:10014000090EBAE80F0013F0010F18BFFB1A43F0B5
:10015000010318477C0600009C060000103A24BFEB
:1001600078C878C1FAD8520724BF30C830C144BF1C
:1001700004680C607047000000230024002500265E
:10018000103A28BF78C1FBD8520728BF30C148BFFA
:100190000B6070471FB500F037F81FBD10B510BDDC
:1001A00000F044F81146FFF7F5FF00F02BFA00F0DD
:1001B00062F803B4FFF7F2FF03BC00F06BF8000035
:1001C0000948804709480047FEE7FEE7FEE7FEE7EB
:1001D000FEE7FEE7FEE7FEE7FEE7FEE70448054927
:1001E000054A064B704700009904000821010008E9
:1001F00070000020700600207002002070020020B5
:10020000704770477047000070B5064C7C44064D3F
:100210007D4403E0206820448047241DAC42F9D18E
:1002200070BD0000E0050000E0050000754600F02C
:100230002BF8AE4605006946534620F00700854678
:1002400018B020B5FFF7CAFFBDE820404FF0000608
:100250004FF000074FF000084FF0000B21F00701AE
:10026000AC46ACE8C009ACE8C009ACE8C009ACE8F1
:10027000C0098D46704710B50446AFF30080204694
:10028000BDE81040FFF795BF004870470C00002004
:100290007047000001491820ABBEFEE726000200AF
:1002A0002DE9F0410246002500260020002300240D
:1002B000002791F803C00CF00F0591F803C00CF073
:1002C000100CBCF1000F03D091F802C04CEA0505F8
:1002D00091F800C0BCF1000F31D0146800202BE071
:1002E0004FF0010C0CFA00F3B1F800C00CEA030661
:1002F0009E4220D183004FF00F0C0CFA03F7BC4351
:1003000005FA03FC4CEA040491F803C0BCF1280F81
:1003100006D14FF0010C0CFA00FCC2F814C00AE040
:1003200091F803C0BCF1480F05D14FF0010C0CFA55
:1003300000FCC2F810C0401C0828D1D31460B1F8EA
:1003400000C0BCF1FF0F34DD546800202EE000F146
:10035000080C4FF0010808FA0CF3B1F800C00CEAE1
:1003600003069E4221D183004FF00F0C0CFA03F7D5
:10037000BC4305FA03FC4CEA040491F803C0BCF149
:10038000280F05D100F1080C08FA0CF8C2F8148007
:1003900091F803C0BCF1480F07D100F1080C4FF0F1
:1003A000010808FA0CF8C2F81080401C0828CED3C7
:1003B0005460BDE8F081000029B1064A9269024309
:1003C000044B9A6104E0034A92698243014B9A61AB
:1003D000704700000010024010B500F001F810BD99
:1003E0000CB50020019000902A48006840F480304D
:1003F0002849086000BF2748006800F400300090DA
:100400000198401C0190009818B90198B0F5A06FB0
:10041000F1D12048006800F4003010B101200090B4
:1004200001E0002000900098012831D1194840686F
:100430001849486008464068486008464068486077
:100440000846406820F47C1048600846406840F444
:10045000981048600846006840F08070086000BF4F
:100460000C48006800F000700028F9D00948406886
:1004700020F00300074948600846406840F0020049
:10048000486000BF0348406800F00C000828F9D11C
:100490000CBD00000010024010B51448006840F088
:1004A00001001249086008464068114908400F4998
:1004B0004860084600680F4908400C490860084633
:1004C000006820F4802008600846406820F4FE00A0
:1004D00048604FF41F0088600020C862FFF77CFF6F
:1004E0004FF000600449086010BD00000010024099
:1004F0000000FFF8FFFFF6FE08ED00E070B50446CF
:100500000D462078294600F04FF970BD70B50546BC
:100510000C462C70204600F02AF9284670BD70B5B4
:1005200004460D4629462046FFF7E8FF70BD10B58A
:10053000044600BF207800F02BF910BD70B5084DBF
:1005400000242C70204600F049F800BF28210548FF
:10055000FFF7DCFF29210448FFF7D8FF70BD00003A
:1005600008000020090000200A000020F8B5044619
:100570000D462609B11C012202FA01F01146FFF7CF
:100580001BFF204600F0CCF8074604F00F010120C5
:10059000884080B2ADF80000284600F008F8C0B2EC
:1005A0008DF8030069463846FFF77AFEF8BD01462C
:1005B00021B1012904D0022906D103E004207047AB
:1005C0004820FCE72820FAE70420F8E770B5044645
:1005D0000D4629462046FFF7C9FF70BD10B50446F9
:1005E00000212046FFF7F2FF10BD70B5044604F06D
:1005F0000F05204600F094F880680121A9400840CA
:1006000070BD000001211B48FFF778FF00211A4848
:10061000FFF774FF2DE000BF00BF18490878FFF70F
:10062000E4FF00BF012824D11248FFF780FF08B97A
:10063000012000E00020044621460E48FFF76FFF2E
:100640000D48FFF774FF08B9012000E000200446C0
:1006500021460948FFF763FF09480A49086004E09A
:1006600008480068401E07490860064800680028DE
:10067000F6DCD0E7090000200A0000200800002076
:10068000FFFF0F00040000202DE9F84304460D464B
:1006900016462709B91C012202FA01F01146FFF79C
:1006A0008BFE204600F03CF8804604F00F0101204C
:1006B000884080B2ADF80000284600F00FF8C0B2C4
:1006C0008DF80300304600F01CF8C0B28DF802002F
:1006D00069464046FFF7E4FDBDE8F883014631B1C5
:1006E000012906D0022906D0032908D105E01020EF
:1006F00070471420FCE71820FAE71C20F8E71020C8
:10070000F6E7014621B1012904D0022906D103E010
:10071000022070470120FCE70320FAE70220F8E7F7
:1007200001460A0932B1012A06D0022A06D0032A5C
:1007300008D105E0054806E0054804E0054802E068
:10074000054800E000BF00BF7047000000080140FE
:10075000000C0140001001400014014070B5044637
:100760000D4600222946204600F008F870BD10B55D
:10077000044600212046FFF7F1FF10BD70B5044686
:100780000D461646324629462046FFF77DFF70BDCE
:1007900070B5044604F00F052046FFF7C1FFC0689E
:1007A0000121A940084070BD70B504460D462046A1
:1007B000FFF7B6FF06462DB904F00F01012088406F
:1007C000706104E004F00F0101208840306170BDC9
:1007D000F4070008000000200C0000005C01000885
:1007E000000800080C0000206406000078010008E2
:1007F0004DFDFFFF000000000000000000000000B1
:0400000508000121CD
:00000001FF
