:020000040800F2
:1000000088060020BD010008A30300089B03000828
:100010009F030008770200083D050008000000006B
:10002000000000000000000000000000C9030008FC
:100030007B02000800000000A50300088D040008F2
:10004000D7010008D7010008D7010008D701000830
:10005000D7010008D7010008D7010008D701000820
:10006000D7010008D7010008D7010008D701000810
:10007000D7010008D7010008D7010008D701000800
:10008000D7010008D7010008D701000800000000D0
:10009000000000000000000000000000D701000880
:1000A000D7010008D7010008D7010008D7010008D0
:1000B000D7010008D7010008D7010008D7010008C0
:1000C000D7010008D7010008D7010008D7010008B0
:1000D000D7010008D7010008D7010008D7010008A0
:1000E000D7010008D7010008D70100080000000070
:1000F0000000000000000000000000000000000000
:1001000000000000000000000000000000000000EF
:100110000000000000000000D7010008D70100081F
:1001200000F002F800F03AF80AA090E8000C8244CF
:100130008344AAF10107DA4501D100F02FF8AFF2AC
:10014000090EBAE80F0013F0010F18BFFB1A43F0B5
:10015000010318477C0400009C040000103A24BFEF
:1001600078C878C1FAD8520724BF30C830C144BF1C
:1001700004680C607047000000230024002500265E
:10018000103A28BF78C1FBD8520728BF30C148BFFA
:100190000B6070471FB51FBD10B510BD00F031F8E2
:1001A0001146FFF7F7FF00F0CBF900F04FF803B46A
:1001B000FFF7F2FF03BC00F057F800000948804742
:1001C00009480047FEE7FEE7FEE7FEE7FEE7FEE739
:1001D000FEE7FEE7FEE7FEE704480549054A064B51
:1001E00070470000D90400082101000888000020A1
:1001F000880600208802002088020020704770478F
:100200007047754600F02CF8AE4605006946534627
:1002100020F00700854618B020B5FFF7DDFFBDE8E8
:1002200020404FF000064FF000074FF000084FF05D
:10023000000B21F00701AC46ACE8C009ACE8C009EE
:10024000ACE8C009ACE8C0098D46704710B504465B
:10025000AFF300802046BDE81040FFF7A8BF0000C4
:10026000004870472800002001491820ABBEFEE777
:1002700026000200704700BFFEE770472DE9F041FD
:10028000024600250026002000230024002791F8C4
:1002900003C00CF00F0591F803C00CF0100CBCF17A
:1002A000000F03D091F802C04CEA050591F800C098
:1002B000BCF1000F31D0146800202BE04FF0010C8E
:1002C0000CFA00F3B1F800C00CEA03069E4220D1FC
:1002D00083004FF00F0C0CFA03F7BC4305FA03FC44
:1002E0004CEA040491F803C0BCF1280F06D14FF08A
:1002F000010C0CFA00FCC2F814C00AE091F803C02B
:10030000BCF1480F05D14FF0010C0CFA00FCC2F80B
:1003100010C0401C0828D1D31460B1F800C0BCF153
:10032000FF0F34DD546800202EE000F1080C4FF080
:10033000010808FA0CF3B1F800C00CEA03069E426B
:1003400021D183004FF00F0C0CFA03F7BC4305FAE0
:1003500003FC4CEA040491F803C0BCF1280F05D15A
:1003600000F1080C08FA0CF8C2F8148091F803C0E8
:10037000BCF1480F07D100F1080C4FF0010808FA52
:100380000CF8C2F81080401C0828CED35460BDE899
:10039000F081416170470161704700BFFEE700BF17
:1003A000FEE770477047000029B1064A9269024390
:1003B000044B9A6104E0034A92698243014B9A61BB
:1003C0007047000000100240704710B500F002F8BE
:1003D00010BD00000CB50020019000902A48006874
:1003E00040F480302849086000BF2748006800F4C6
:1003F000003000900198401C0190009818B90198B5
:10040000B0F5A06FF1D12048006800F4003010B1C1
:100410000120009001E0002000900098012831D1D7
:1004200019484068184948600846406848600846CE
:10043000406848600846406820F47C1048600846E0
:10044000406840F4981048600846006840F08070AA
:10045000086000BF0C48006800F000700028F9D068
:100460000948406820F00300074948600846406892
:1004700040F00200486000BF0348406800F00C00F4
:100480000828F9D10CBD00000010024010B510483A
:100490000068401C0E49086008460068C82190FBAF
:1004A000F1F201FB120028B94FF440710948FFF73F
:1004B00070FF0CE006480068642190FBF1F201FB3C
:1004C000120020B94FF440710248FFF764FF10BDDD
:1004D0000C0000200010014010B51448006840F0E6
:1004E00001001249086008464068114908400F4958
:1004F0004860084600680F4908400C4908600846F3
:10050000006820F4802008600846406820F4FE005F
:1005100048604FF41F0088600020C862FFF755FF55
:100520004FF000600449086010BD00000010024058
:100530000000FFF8FFFFF6FE08ED00E000BFFEE759
:1005400001211420FFF730FF4FF440701B49088051
:10055000022088701020C8701948FFF78FFE1948D4
:1005600000684FF47A72B0FBF2F1B1F1807F01D3F1
:1005700001201DE021F07F40401E4FF0E02250613D
:1005800050170F22002807DA13071D0E0E4B00F03C
:100590000F04241F1D5503E013071C0E0B4B1C54A6
:1005A00000BF00204FF0E022906107201061002082
:1005B00008B100BFFEE700BFFEE70000000000201A
:1005C000001001401400002018ED00E000E400E0FD
:1005D000F005000800000020280000005C01000871
:1005E00018060008280000206006000078010008B6
:1005F00000000000000000000000000000000000FB
:100600006400000000366E010000000000000000E1
:080610000102030406070809BA
:0400000508000121CD
:00000001FF
